{
  "contractName": "Indent",
  "abi": [
    {
      "inputs": [
        {
          "internalType": "bool",
          "name": "_restricted",
          "type": "bool"
        }
      ],
      "stateMutability": "nonpayable",
      "type": "constructor"
    },
    {
      "anonymous": false,
      "inputs": [],
      "name": "OwnershipTransfer",
      "type": "event"
    },
    {
      "inputs": [],
      "name": "creation_date",
      "outputs": [
        {
          "internalType": "uint256",
          "name": "",
          "type": "uint256"
        }
      ],
      "stateMutability": "view",
      "type": "function",
      "constant": true
    },
    {
      "inputs": [],
      "name": "creator",
      "outputs": [
        {
          "internalType": "address",
          "name": "",
          "type": "address"
        }
      ],
      "stateMutability": "view",
      "type": "function",
      "constant": true
    },
    {
      "inputs": [],
      "name": "fill_date",
      "outputs": [
        {
          "internalType": "uint256",
          "name": "",
          "type": "uint256"
        }
      ],
      "stateMutability": "view",
      "type": "function",
      "constant": true
    },
    {
      "inputs": [],
      "name": "modify_date",
      "outputs": [
        {
          "internalType": "uint256",
          "name": "",
          "type": "uint256"
        }
      ],
      "stateMutability": "view",
      "type": "function",
      "constant": true
    },
    {
      "inputs": [],
      "name": "owner",
      "outputs": [
        {
          "internalType": "address",
          "name": "",
          "type": "address"
        }
      ],
      "stateMutability": "view",
      "type": "function",
      "constant": true
    },
    {
      "inputs": [
        {
          "internalType": "uint256",
          "name": "",
          "type": "uint256"
        }
      ],
      "name": "part_orders",
      "outputs": [
        {
          "internalType": "string",
          "name": "part_id",
          "type": "string"
        },
        {
          "internalType": "uint256",
          "name": "dues_out",
          "type": "uint256"
        },
        {
          "internalType": "uint256",
          "name": "dues_in",
          "type": "uint256"
        }
      ],
      "stateMutability": "view",
      "type": "function",
      "constant": true
    },
    {
      "inputs": [],
      "name": "restricted",
      "outputs": [
        {
          "internalType": "bool",
          "name": "",
          "type": "bool"
        }
      ],
      "stateMutability": "view",
      "type": "function",
      "constant": true
    },
    {
      "inputs": [],
      "name": "reviser",
      "outputs": [
        {
          "internalType": "address",
          "name": "",
          "type": "address"
        }
      ],
      "stateMutability": "view",
      "type": "function",
      "constant": true
    },
    {
      "inputs": [],
      "name": "transferee",
      "outputs": [
        {
          "internalType": "address",
          "name": "",
          "type": "address"
        }
      ],
      "stateMutability": "view",
      "type": "function",
      "constant": true
    },
    {
      "inputs": [],
      "name": "request_ownership",
      "outputs": [],
      "stateMutability": "nonpayable",
      "type": "function"
    },
    {
      "inputs": [],
      "name": "change_handler",
      "outputs": [],
      "stateMutability": "nonpayable",
      "type": "function"
    },
    {
      "inputs": [
        {
          "internalType": "string",
          "name": "_part_id",
          "type": "string"
        },
        {
          "internalType": "uint256",
          "name": "_dues_out",
          "type": "uint256"
        },
        {
          "internalType": "uint256",
          "name": "_dues_in",
          "type": "uint256"
        }
      ],
      "name": "add_edit_order",
      "outputs": [
        {
          "internalType": "uint256",
          "name": "order_id",
          "type": "uint256"
        }
      ],
      "stateMutability": "nonpayable",
      "type": "function"
    },
    {
      "inputs": [
        {
          "internalType": "string",
          "name": "_entity_id",
          "type": "string"
        },
        {
          "internalType": "string",
          "name": "_part_id",
          "type": "string"
        },
        {
          "internalType": "string",
          "name": "_current_status",
          "type": "string"
        },
        {
          "internalType": "string",
          "name": "_current_loc",
          "type": "string"
        },
        {
          "internalType": "string",
          "name": "_maintenance_status",
          "type": "string"
        }
      ],
      "name": "register_part",
      "outputs": [
        {
          "internalType": "address",
          "name": "entity_address",
          "type": "address"
        }
      ],
      "stateMutability": "nonpayable",
      "type": "function"
    }
  ],
  "bytecode": "0x60806040523480156200001157600080fd5b5060405162002f0b38038062002f0b833981810160405281019062000037919062000122565b336000806101000a81548173ffffffffffffffffffffffffffffffffffffffff021916908373ffffffffffffffffffffffffffffffffffffffff16021790555033600160006101000a81548173ffffffffffffffffffffffffffffffffffffffff021916908373ffffffffffffffffffffffffffffffffffffffff1602179055504260038190555080600260146101000a81548160ff0219169083151502179055505062000154565b600080fd5b60008115159050919050565b620000fc81620000e5565b81146200010857600080fd5b50565b6000815190506200011c81620000f1565b92915050565b6000602082840312156200013b576200013a620000e0565b5b60006200014b848285016200010b565b91505092915050565b612da780620001646000396000f3fe60806040523480156200001157600080fd5b5060043610620000e25760003560e01c806388503e7f1162000099578063970f2c86116200006f578063970f2c861462000219578063a9413511146200024f578063ac7f44861462000285578063cca4289114620002a757620000e2565b806388503e7f14620001b35780638cabe7d014620001d55780638da5cb5b14620001f757620000e2565b806302d05d3f14620000e75780630fbe37a514620001095780631ab0db0314620001415780634dc48170146200016357806354e2ecf0146200016f5780637072c6b11462000191575b600080fd5b620000f1620002b3565b60405162000100919062000d4d565b60405180910390f35b62000127600480360381019062000121919062000db9565b620002d9565b604051620001389392919062000ea0565b60405180910390f35b6200014b620003a4565b6040516200015a919062000ee4565b60405180910390f35b6200016d620003aa565b005b6200017962000524565b60405162000188919062000ee4565b60405180910390f35b6200019b6200052a565b604051620001aa919062000f1e565b60405180910390f35b620001bd6200053d565b604051620001cc919062000d4d565b60405180910390f35b620001df62000563565b604051620001ee919062000d4d565b60405180910390f35b6200020162000589565b60405162000210919062000d4d565b60405180910390f35b6200023760048036038101906200023191906200108c565b620005ad565b60405162000246919062000ee4565b60405180910390f35b6200026d600480360381019062000267919062001107565b6200094f565b6040516200027c919062000d4d565b60405180910390f35b6200028f62000b72565b6040516200029e919062000ee4565b60405180910390f35b620002b162000b78565b005b600160009054906101000a900473ffffffffffffffffffffffffffffffffffffffff1681565b60088181548110620002ea57600080fd5b90600052602060002090600402016000915090508060000180546200030f9062001259565b80601f01602080910402602001604051908101604052809291908181526020018280546200033d9062001259565b80156200038e5780601f1062000362576101008083540402835291602001916200038e565b820191906000526020600020905b8154815290600101906020018083116200037057829003601f168201915b5050505050908060010154908060020154905083565b60065481565b600260149054906101000a900460ff1615620004525760008054906101000a900473ffffffffffffffffffffffffffffffffffffffff1673ffffffffffffffffffffffffffffffffffffffff163373ffffffffffffffffffffffffffffffffffffffff161462000451576040517f08c379a0000000000000000000000000000000000000000000000000000000008152600401620004489062001305565b60405180910390fd5b5b600260009054906101000a900473ffffffffffffffffffffffffffffffffffffffff166000806101000a81548173ffffffffffffffffffffffffffffffffffffffff021916908373ffffffffffffffffffffffffffffffffffffffff1602179055506000600260006101000a81548173ffffffffffffffffffffffffffffffffffffffff021916908373ffffffffffffffffffffffffffffffffffffffff1602179055507f349884ad6e24de18e01be6d8e4c64781b4ba0ad1fe2e099998d0a90d1e4697f660405160405180910390a1565b60035481565b600260149054906101000a900460ff1681565b600460009054906101000a900473ffffffffffffffffffffffffffffffffffffffff1681565b600260009054906101000a900473ffffffffffffffffffffffffffffffffffffffff1681565b60008054906101000a900473ffffffffffffffffffffffffffffffffffffffff1681565b6000600260149054906101000a900460ff1615620006575760008054906101000a900473ffffffffffffffffffffffffffffffffffffffff1673ffffffffffffffffffffffffffffffffffffffff163373ffffffffffffffffffffffffffffffffffffffff161462000656576040517f08c379a00000000000000000000000000000000000000000000000000000000081526004016200064d9062001305565b60405180910390fd5b5b33600460006101000a81548173ffffffffffffffffffffffffffffffffffffffff021916908373ffffffffffffffffffffffffffffffffffffffff1602179055504260058190555060606000600786604051620006b5919062001369565b908152602001604051809103902054905060008114620008725760006008600183620006e29190620013b1565b81548110620006f657620006f5620013ec565b5b9060005260206000209060040201604051806080016040529081600082018054620007219062001259565b80601f01602080910402602001604051908101604052809291908181526020018280546200074f9062001259565b8015620007a05780601f106200077457610100808354040283529160200191620007a0565b820191906000526020600020905b8154815290600101906020018083116200078257829003601f168201915b505050505081526020016001820154815260200160028201548152602001600382018054806020026020016040519081016040528092919081815260200182805480156200084457602002820191906000526020600020905b8160009054906101000a900473ffffffffffffffffffffffffffffffffffffffff1673ffffffffffffffffffffffffffffffffffffffff1681526020019060010190808311620007f9575b5050505050815250509050848160400181815250508581602001818152505060088054905093505062000946565b6000604051806080016040528088815260200187815260200186815260200184815250905060088190806001815401808255809150506001900390600052602060002090600402016000909190919091506000820151816000019080519060200190620008e192919062000bbb565b50602082015181600101556040820151816002015560608201518160030190805190602001906200091492919062000c4c565b50505060088054905093508360078860405162000932919062001369565b908152602001604051809103902081905550505b50509392505050565b6000600260149054906101000a900460ff1615620009f95760008054906101000a900473ffffffffffffffffffffffffffffffffffffffff1673ffffffffffffffffffffffffffffffffffffffff163373ffffffffffffffffffffffffffffffffffffffff1614620009f8576040517f08c379a0000000000000000000000000000000000000000000000000000000008152600401620009ef9062001305565b60405180910390fd5b5b600086868686338760405162000a0f9062000cdb565b62000a20969594939291906200141b565b604051809103906000f08015801562000a3d573d6000803e3d6000fd5b509050600060078760405162000a54919062001369565b90815260200160405180910390205490506000811162000aab576040517f08c379a000000000000000000000000000000000000000000000000000000000815260040162000aa290620014fb565b60405180910390fd5b6000600860018362000abe9190620013b1565b8154811062000ad25762000ad1620013ec565b5b9060005260206000209060040201905082935080600301849080600181540180825580915050600190039060005260206000200160009091909190916101000a81548173ffffffffffffffffffffffffffffffffffffffff021916908373ffffffffffffffffffffffffffffffffffffffff16021790555080600201600081548092919062000b61906200151d565b919050555050505095945050505050565b60055481565b33600260006101000a81548173ffffffffffffffffffffffffffffffffffffffff021916908373ffffffffffffffffffffffffffffffffffffffff160217905550565b82805462000bc99062001259565b90600052602060002090601f01602090048101928262000bed576000855562000c39565b82601f1062000c0857805160ff191683800117855562000c39565b8280016001018555821562000c39579182015b8281111562000c3857825182559160200191906001019062000c1b565b5b50905062000c48919062000ce9565b5090565b82805482825590600052602060002090810192821562000cc8579160200282015b8281111562000cc75782518260006101000a81548173ffffffffffffffffffffffffffffffffffffffff021916908373ffffffffffffffffffffffffffffffffffffffff1602179055509160200191906001019062000c6d565b5b50905062000cd7919062000ce9565b5090565b611806806200156c83390190565b5b8082111562000d0457600081600090555060010162000cea565b5090565b600073ffffffffffffffffffffffffffffffffffffffff82169050919050565b600062000d358262000d08565b9050919050565b62000d478162000d28565b82525050565b600060208201905062000d64600083018462000d3c565b92915050565b6000604051905090565b600080fd5b600080fd5b6000819050919050565b62000d938162000d7e565b811462000d9f57600080fd5b50565b60008135905062000db38162000d88565b92915050565b60006020828403121562000dd25762000dd162000d74565b5b600062000de28482850162000da2565b91505092915050565b600081519050919050565b600082825260208201905092915050565b60005b8381101562000e2757808201518184015260208101905062000e0a565b8381111562000e37576000848401525b50505050565b6000601f19601f8301169050919050565b600062000e5b8262000deb565b62000e67818562000df6565b935062000e7981856020860162000e07565b62000e848162000e3d565b840191505092915050565b62000e9a8162000d7e565b82525050565b6000606082019050818103600083015262000ebc818662000e4e565b905062000ecd602083018562000e8f565b62000edc604083018462000e8f565b949350505050565b600060208201905062000efb600083018462000e8f565b92915050565b60008115159050919050565b62000f188162000f01565b82525050565b600060208201905062000f35600083018462000f0d565b92915050565b600080fd5b600080fd5b7f4e487b7100000000000000000000000000000000000000000000000000000000600052604160045260246000fd5b62000f7f8262000e3d565b810181811067ffffffffffffffff8211171562000fa15762000fa062000f45565b5b80604052505050565b600062000fb662000d6a565b905062000fc4828262000f74565b919050565b600067ffffffffffffffff82111562000fe75762000fe662000f45565b5b62000ff28262000e3d565b9050602081019050919050565b82818337600083830152505050565b6000620010256200101f8462000fc9565b62000faa565b90508281526020810184848401111562001044576200104362000f40565b5b6200105184828562000fff565b509392505050565b600082601f83011262001071576200107062000f3b565b5b8135620010838482602086016200100e565b91505092915050565b600080600060608486031215620010a857620010a762000d74565b5b600084013567ffffffffffffffff811115620010c957620010c862000d79565b5b620010d78682870162001059565b9350506020620010ea8682870162000da2565b9250506040620010fd8682870162000da2565b9150509250925092565b600080600080600060a0868803121562001126576200112562000d74565b5b600086013567ffffffffffffffff81111562001147576200114662000d79565b5b620011558882890162001059565b955050602086013567ffffffffffffffff81111562001179576200117862000d79565b5b620011878882890162001059565b945050604086013567ffffffffffffffff811115620011ab57620011aa62000d79565b5b620011b98882890162001059565b935050606086013567ffffffffffffffff811115620011dd57620011dc62000d79565b5b620011eb8882890162001059565b925050608086013567ffffffffffffffff8111156200120f576200120e62000d79565b5b6200121d8882890162001059565b9150509295509295909350565b7f4e487b7100000000000000000000000000000000000000000000000000000000600052602260045260246000fd5b600060028204905060018216806200127257607f821691505b602082108114156200128957620012886200122a565b5b50919050565b7f5468697320696e64656e74206973207265737472696374656420746f206f776e60008201527f6572000000000000000000000000000000000000000000000000000000000000602082015250565b6000620012ed60228362000df6565b9150620012fa826200128f565b604082019050919050565b600060208201905081810360008301526200132081620012de565b9050919050565b600081905092915050565b60006200133f8262000deb565b6200134b818562001327565b93506200135d81856020860162000e07565b80840191505092915050565b600062001377828462001332565b915081905092915050565b7f4e487b7100000000000000000000000000000000000000000000000000000000600052601160045260246000fd5b6000620013be8262000d7e565b9150620013cb8362000d7e565b925082821015620013e157620013e062001382565b5b828203905092915050565b7f4e487b7100000000000000000000000000000000000000000000000000000000600052603260045260246000fd5b600060c082019050818103600083015262001437818962000e4e565b905081810360208301526200144d818862000e4e565b9050818103604083015262001463818762000e4e565b9050818103606083015262001479818662000e4e565b90506200148a608083018562000d3c565b81810360a08301526200149e818462000e4e565b9050979650505050505050565b7f50617274206f7264657220646f6573206e6f7420657869737400000000000000600082015250565b6000620014e360198362000df6565b9150620014f082620014ab565b602082019050919050565b600060208201905081810360008301526200151681620014d4565b9050919050565b60006200152a8262000d7e565b91507fffffffffffffffffffffffffffffffffffffffffffffffffffffffffffffffff82141562001560576200155f62001382565b5b60018201905091905056fe60806040523480156200001157600080fd5b50604051620018063803806200180683398181016040528101906200003791906200053e565b85600090805190602001906200004f9291906200028c565b508460019080519060200190620000689291906200028c565b508360029080519060200190620000819291906200028c565b5082600390805190602001906200009a9291906200028c565b5081600460006101000a81548173ffffffffffffffffffffffffffffffffffffffff021916908373ffffffffffffffffffffffffffffffffffffffff16021790555033600660006101000a81548173ffffffffffffffffffffffffffffffffffffffff021916908373ffffffffffffffffffffffffffffffffffffffff1602179055508060079080519060200190620001359291906200028c565b50600160086040516200014890620006d0565b908152602001604051809103902060006101000a81548160ff021916908315150217905550600160086040516200017f9062000737565b908152602001604051809103902060006101000a81548160ff02191690831515021790555060016008604051620001b6906200079e565b908152602001604051809103902060006101000a81548160ff02191690831515021790555060016008604051620001ed9062000805565b908152602001604051809103902060006101000a81548160ff0219169083151502179055506001600860405162000224906200086c565b908152602001604051809103902060006101000a81548160ff021916908315150217905550600160086040516200025b90620008d3565b908152602001604051809103902060006101000a81548160ff0219169083151502179055505050505050506200094f565b8280546200029a9062000919565b90600052602060002090601f016020900481019282620002be57600085556200030a565b82601f10620002d957805160ff19168380011785556200030a565b828001600101855582156200030a579182015b8281111562000309578251825591602001919060010190620002ec565b5b5090506200031991906200031d565b5090565b5b80821115620003385760008160009055506001016200031e565b5090565b6000604051905090565b600080fd5b600080fd5b600080fd5b600080fd5b6000601f19601f8301169050919050565b7f4e487b7100000000000000000000000000000000000000000000000000000000600052604160045260246000fd5b620003a5826200035a565b810181811067ffffffffffffffff82111715620003c757620003c66200036b565b5b80604052505050565b6000620003dc6200033c565b9050620003ea82826200039a565b919050565b600067ffffffffffffffff8211156200040d576200040c6200036b565b5b62000418826200035a565b9050602081019050919050565b60005b838110156200044557808201518184015260208101905062000428565b8381111562000455576000848401525b50505050565b6000620004726200046c84620003ef565b620003d0565b90508281526020810184848401111562000491576200049062000355565b5b6200049e84828562000425565b509392505050565b600082601f830112620004be57620004bd62000350565b5b8151620004d08482602086016200045b565b91505092915050565b600073ffffffffffffffffffffffffffffffffffffffff82169050919050565b60006200050682620004d9565b9050919050565b6200051881620004f9565b81146200052457600080fd5b50565b60008151905062000538816200050d565b92915050565b60008060008060008060c087890312156200055e576200055d62000346565b5b600087015167ffffffffffffffff8111156200057f576200057e6200034b565b5b6200058d89828a01620004a6565b965050602087015167ffffffffffffffff811115620005b157620005b06200034b565b5b620005bf89828a01620004a6565b955050604087015167ffffffffffffffff811115620005e357620005e26200034b565b5b620005f189828a01620004a6565b945050606087015167ffffffffffffffff8111156200061557620006146200034b565b5b6200062389828a01620004a6565b93505060806200063689828a0162000527565b92505060a087015167ffffffffffffffff8111156200065a57620006596200034b565b5b6200066889828a01620004a6565b9150509295509295509295565b600081905092915050565b7f4100000000000000000000000000000000000000000000000000000000000000600082015250565b6000620006b860018362000675565b9150620006c58262000680565b600182019050919050565b6000620006dd82620006a9565b9150819050919050565b7f4200000000000000000000000000000000000000000000000000000000000000600082015250565b60006200071f60018362000675565b91506200072c82620006e7565b600182019050919050565b6000620007448262000710565b9150819050919050565b7f4300000000000000000000000000000000000000000000000000000000000000600082015250565b60006200078660018362000675565b915062000793826200074e565b600182019050919050565b6000620007ab8262000777565b9150819050919050565b7f4400000000000000000000000000000000000000000000000000000000000000600082015250565b6000620007ed60018362000675565b9150620007fa82620007b5565b600182019050919050565b60006200081282620007de565b9150819050919050565b7f4500000000000000000000000000000000000000000000000000000000000000600082015250565b60006200085460018362000675565b915062000861826200081c565b600182019050919050565b6000620008798262000845565b9150819050919050565b7f4600000000000000000000000000000000000000000000000000000000000000600082015250565b6000620008bb60018362000675565b9150620008c88262000883565b600182019050919050565b6000620008e082620008ac565b9150819050919050565b7f4e487b7100000000000000000000000000000000000000000000000000000000600052602260045260246000fd5b600060028204905060018216806200093257607f821691505b60208210811415620009495762000948620008ea565b5b50919050565b610ea7806200095f6000396000f3fe608060405234801561001057600080fd5b50600436106100cf5760003560e01c80634dc481701161008c5780638cabe7d0116100665780638cabe7d0146101ca578063cca42891146101e8578063df879a67146101f2578063f8f2ba2b1461020e576100cf565b80634dc48170146101865780636ff5e8e61461019057806370c7e230146101ae576100cf565b80631ee04f0a146100d457806321c9af56146100f257806322c61f54146101105780633815cd2c1461012e57806339154e9b1461014a578063423b766114610168575b600080fd5b6100dc61022c565b6040516100e99190610a57565b60405180910390f35b6100fa610252565b6040516101079190610b0b565b60405180910390f35b6101186102e0565b6040516101259190610b0b565b60405180910390f35b61014860048036038101906101439190610c76565b61036e565b005b610152610418565b60405161015f9190610a57565b60405180910390f35b61017061043e565b60405161017d9190610b0b565b60405180910390f35b61018e6104cc565b005b61019861062f565b6040516101a59190610b0b565b60405180910390f35b6101c860048036038101906101c39190610c76565b6106bd565b005b6101d2610767565b6040516101df9190610a57565b60405180910390f35b6101f061078d565b005b61020c60048036038101906102079190610c76565b6107d0565b005b6102166108e5565b6040516102239190610b0b565b60405180910390f35b600460009054906101000a900473ffffffffffffffffffffffffffffffffffffffff1681565b6001805461025f90610cee565b80601f016020809104026020016040519081016040528092919081815260200182805461028b90610cee565b80156102d85780601f106102ad576101008083540402835291602001916102d8565b820191906000526020600020905b8154815290600101906020018083116102bb57829003601f168201915b505050505081565b600780546102ed90610cee565b80601f016020809104026020016040519081016040528092919081815260200182805461031990610cee565b80156103665780601f1061033b57610100808354040283529160200191610366565b820191906000526020600020905b81548152906001019060200180831161034957829003601f168201915b505050505081565b3373ffffffffffffffffffffffffffffffffffffffff16600460009054906101000a900473ffffffffffffffffffffffffffffffffffffffff1673ffffffffffffffffffffffffffffffffffffffff16146103fe576040517f08c379a00000000000000000000000000000000000000000000000000000000081526004016103f590610d92565b60405180910390fd5b8060039080519060200190610414929190610973565b5050565b600660009054906101000a900473ffffffffffffffffffffffffffffffffffffffff1681565b6000805461044b90610cee565b80601f016020809104026020016040519081016040528092919081815260200182805461047790610cee565b80156104c45780601f10610499576101008083540402835291602001916104c4565b820191906000526020600020905b8154815290600101906020018083116104a757829003601f168201915b505050505081565b3373ffffffffffffffffffffffffffffffffffffffff16600460009054906101000a900473ffffffffffffffffffffffffffffffffffffffff1673ffffffffffffffffffffffffffffffffffffffff161461055c576040517f08c379a000000000000000000000000000000000000000000000000000000000815260040161055390610d92565b60405180910390fd5b600560009054906101000a900473ffffffffffffffffffffffffffffffffffffffff16600460006101000a81548173ffffffffffffffffffffffffffffffffffffffff021916908373ffffffffffffffffffffffffffffffffffffffff1602179055506000600560006101000a81548173ffffffffffffffffffffffffffffffffffffffff021916908373ffffffffffffffffffffffffffffffffffffffff1602179055507f349884ad6e24de18e01be6d8e4c64781b4ba0ad1fe2e099998d0a90d1e4697f660405160405180910390a1565b6002805461063c90610cee565b80601f016020809104026020016040519081016040528092919081815260200182805461066890610cee565b80156106b55780601f1061068a576101008083540402835291602001916106b5565b820191906000526020600020905b81548152906001019060200180831161069857829003601f168201915b505050505081565b3373ffffffffffffffffffffffffffffffffffffffff16600460009054906101000a900473ffffffffffffffffffffffffffffffffffffffff1673ffffffffffffffffffffffffffffffffffffffff161461074d576040517f08c379a000000000000000000000000000000000000000000000000000000000815260040161074490610d92565b60405180910390fd5b8060029080519060200190610763929190610973565b5050565b600560009054906101000a900473ffffffffffffffffffffffffffffffffffffffff1681565b33600560006101000a81548173ffffffffffffffffffffffffffffffffffffffff021916908373ffffffffffffffffffffffffffffffffffffffff160217905550565b3373ffffffffffffffffffffffffffffffffffffffff16600460009054906101000a900473ffffffffffffffffffffffffffffffffffffffff1673ffffffffffffffffffffffffffffffffffffffff1614610860576040517f08c379a000000000000000000000000000000000000000000000000000000000815260040161085790610d92565b60405180910390fd5b6008816040516108709190610dee565b908152602001604051809103902060009054906101000a900460ff166108cb576040517f08c379a00000000000000000000000000000000000000000000000000000000081526004016108c290610e51565b60405180910390fd5b80600790805190602001906108e1929190610973565b5050565b600380546108f290610cee565b80601f016020809104026020016040519081016040528092919081815260200182805461091e90610cee565b801561096b5780601f106109405761010080835404028352916020019161096b565b820191906000526020600020905b81548152906001019060200180831161094e57829003601f168201915b505050505081565b82805461097f90610cee565b90600052602060002090601f0160209004810192826109a157600085556109e8565b82601f106109ba57805160ff19168380011785556109e8565b828001600101855582156109e8579182015b828111156109e75782518255916020019190600101906109cc565b5b5090506109f591906109f9565b5090565b5b80821115610a125760008160009055506001016109fa565b5090565b600073ffffffffffffffffffffffffffffffffffffffff82169050919050565b6000610a4182610a16565b9050919050565b610a5181610a36565b82525050565b6000602082019050610a6c6000830184610a48565b92915050565b600081519050919050565b600082825260208201905092915050565b60005b83811015610aac578082015181840152602081019050610a91565b83811115610abb576000848401525b50505050565b6000601f19601f8301169050919050565b6000610add82610a72565b610ae78185610a7d565b9350610af7818560208601610a8e565b610b0081610ac1565b840191505092915050565b60006020820190508181036000830152610b258184610ad2565b905092915050565b6000604051905090565b600080fd5b600080fd5b600080fd5b600080fd5b7f4e487b7100000000000000000000000000000000000000000000000000000000600052604160045260246000fd5b610b8382610ac1565b810181811067ffffffffffffffff82111715610ba257610ba1610b4b565b5b80604052505050565b6000610bb5610b2d565b9050610bc18282610b7a565b919050565b600067ffffffffffffffff821115610be157610be0610b4b565b5b610bea82610ac1565b9050602081019050919050565b82818337600083830152505050565b6000610c19610c1484610bc6565b610bab565b905082815260208101848484011115610c3557610c34610b46565b5b610c40848285610bf7565b509392505050565b600082601f830112610c5d57610c5c610b41565b5b8135610c6d848260208601610c06565b91505092915050565b600060208284031215610c8c57610c8b610b37565b5b600082013567ffffffffffffffff811115610caa57610ca9610b3c565b5b610cb684828501610c48565b91505092915050565b7f4e487b7100000000000000000000000000000000000000000000000000000000600052602260045260246000fd5b60006002820490506001821680610d0657607f821691505b60208210811415610d1a57610d19610cbf565b5b50919050565b7f546869732070617274206973207265737472696374656420746f20746865206360008201527f757272656e742068616e646c6572206f6e6c7900000000000000000000000000602082015250565b6000610d7c603383610a7d565b9150610d8782610d20565b604082019050919050565b60006020820190508181036000830152610dab81610d6f565b9050919050565b600081905092915050565b6000610dc882610a72565b610dd28185610db2565b9350610de2818560208601610a8e565b80840191505092915050565b6000610dfa8284610dbd565b915081905092915050565b7f496e76616c6964206d61696e74656e616e636520747970650000000000000000600082015250565b6000610e3b601883610a7d565b9150610e4682610e05565b602082019050919050565b60006020820190508181036000830152610e6a81610e2e565b905091905056fea26469706673582212207ab39f8c08bee939377d6fcb5384aa76641675e33811e32b76b33cf764a1083664736f6c634300080a0033a2646970667358221220a9574717eab43d28adea30ba1883c0bb4a84965bdd0a5f625f2bd8ae9cbf6a9f64736f6c634300080a0033",
  "immutableReferences": {},
  "source": "// SPDX-License-Identifier: GPL-3.0\npragma solidity >=0.4.16 <0.9.0;\n\nimport './Part.sol';\n\ncontract Indent{\n    address public owner;\n    address public creator;\n    address public transferee;\n    bool public restricted;\n    uint public creation_date;\n    address public reviser;\n    uint public modify_date;\n    uint public fill_date;\n   \n    struct part_order{\n        // Part uuid\n        string part_id;\n        uint dues_out;\n        uint dues_in;\n        address [] parts;\n    } \n\n    mapping(string=>uint) part_order_mapping;\n    part_order [] public part_orders;\n\n    modifier onlyBy {\n        if (restricted){\n            require(msg.sender == owner,\"This indent is restricted to owner\");\n        }\n        _;\n    }\n    event OwnershipTransfer();\n\n    function request_ownership() public{\n        transferee = msg.sender;\n    }\n\n    function change_handler() public onlyBy(){\n        owner = transferee;\n        transferee = address(0);\n        emit OwnershipTransfer();\n    }\n\n    constructor(bool _restricted) {\n        owner = msg.sender;\n        creator = msg.sender;\n        creation_date = block.timestamp;\n        restricted = _restricted;\n    }\n\n    function add_edit_order(string memory _part_id,uint _dues_out,uint _dues_in) public onlyBy returns(uint order_id){\n        reviser = msg.sender;\n        modify_date = block.timestamp;\n        address [] memory part_list;\n        uint pos = part_order_mapping[_part_id];\n        if ( pos != 0){\n            part_order memory order = part_orders[pos - 1];\n            order.dues_in = _dues_in;\n            order.dues_out = _dues_out;\n            order_id = part_orders.length;\n        }\n        else {\n            part_order memory order = part_order(_part_id,_dues_out,_dues_in,part_list);\n            part_orders.push(order);\n            order_id = part_orders.length;\n            part_order_mapping[_part_id] = order_id;\n        }\n    }\n\n    function register_part(string memory _entity_id ,string memory _part_id,string memory _current_status,string memory _current_loc,string memory _maintenance_status) public onlyBy returns(address entity_address){\n        Part entity = new Part(_entity_id,_part_id,_current_status,_current_loc,msg.sender,_maintenance_status);\n        uint pos = part_order_mapping[_part_id];\n        require(pos > 0,'Part order does not exist');\n        part_order storage order = part_orders[pos - 1];\n        entity_address = address(entity);\n        order.parts.push(entity_address);\n        order.dues_in++;\n    }\n}",
  "sourcePath": "/home/krishap/Projects/Sem3-CSE1011/contracts/Indent.sol",
  "compiler": {
    "name": "solc",
    "version": "0.8.10+commit.fc410830.Emscripten.clang"
  },
  "schemaVersion": "3.4.3",
  "updatedAt": "2021-12-05T15:58:42.412Z",
  "networkType": "ethereum",
  "devdoc": {
    "kind": "dev",
    "methods": {},
    "version": 1
  },
  "userdoc": {
    "kind": "user",
    "methods": {},
    "version": 1
  }
}