{
  "contractName": "Part",
  "abi": [
    {
      "inputs": [
        {
          "internalType": "string",
          "name": "_entity_id",
          "type": "string"
        },
        {
          "internalType": "string",
          "name": "_part_id",
          "type": "string"
        },
        {
          "internalType": "string",
          "name": "_current_status",
          "type": "string"
        },
        {
          "internalType": "string",
          "name": "_current_loc",
          "type": "string"
        },
        {
          "internalType": "address",
          "name": "_current_handler",
          "type": "address"
        },
        {
          "internalType": "string",
          "name": "_maintenance_status",
          "type": "string"
        }
      ],
      "stateMutability": "nonpayable",
      "type": "constructor"
    },
    {
      "anonymous": false,
      "inputs": [],
      "name": "OwnershipTransfer",
      "type": "event"
    },
    {
      "inputs": [],
      "name": "current_handler",
      "outputs": [
        {
          "internalType": "address",
          "name": "",
          "type": "address"
        }
      ],
      "stateMutability": "view",
      "type": "function"
    },
    {
      "inputs": [],
      "name": "current_loc",
      "outputs": [
        {
          "internalType": "string",
          "name": "",
          "type": "string"
        }
      ],
      "stateMutability": "view",
      "type": "function"
    },
    {
      "inputs": [],
      "name": "current_status",
      "outputs": [
        {
          "internalType": "string",
          "name": "",
          "type": "string"
        }
      ],
      "stateMutability": "view",
      "type": "function"
    },
    {
      "inputs": [],
      "name": "entity_id",
      "outputs": [
        {
          "internalType": "string",
          "name": "",
          "type": "string"
        }
      ],
      "stateMutability": "view",
      "type": "function"
    },
    {
      "inputs": [],
      "name": "indent",
      "outputs": [
        {
          "internalType": "address",
          "name": "",
          "type": "address"
        }
      ],
      "stateMutability": "view",
      "type": "function"
    },
    {
      "inputs": [],
      "name": "maintenance_status",
      "outputs": [
        {
          "internalType": "string",
          "name": "",
          "type": "string"
        }
      ],
      "stateMutability": "view",
      "type": "function"
    },
    {
      "inputs": [],
      "name": "part_id",
      "outputs": [
        {
          "internalType": "string",
          "name": "",
          "type": "string"
        }
      ],
      "stateMutability": "view",
      "type": "function"
    },
    {
      "inputs": [],
      "name": "transferee",
      "outputs": [
        {
          "internalType": "address",
          "name": "",
          "type": "address"
        }
      ],
      "stateMutability": "view",
      "type": "function"
    },
    {
      "inputs": [],
      "name": "request_ownership",
      "outputs": [],
      "stateMutability": "nonpayable",
      "type": "function"
    },
    {
      "inputs": [],
      "name": "change_handler",
      "outputs": [],
      "stateMutability": "nonpayable",
      "type": "function"
    },
    {
      "inputs": [
        {
          "internalType": "string",
          "name": "_current_status",
          "type": "string"
        }
      ],
      "name": "change_status",
      "outputs": [],
      "stateMutability": "nonpayable",
      "type": "function"
    },
    {
      "inputs": [
        {
          "internalType": "string",
          "name": "_current_loc",
          "type": "string"
        }
      ],
      "name": "change_loc",
      "outputs": [],
      "stateMutability": "nonpayable",
      "type": "function"
    },
    {
      "inputs": [
        {
          "internalType": "string",
          "name": "_current_maintenance",
          "type": "string"
        }
      ],
      "name": "change_maintenance",
      "outputs": [],
      "stateMutability": "nonpayable",
      "type": "function"
    }
  ],
  "bytecode": "0x60806040523480156200001157600080fd5b50604051620018063803806200180683398181016040528101906200003791906200053e565b85600090805190602001906200004f9291906200028c565b508460019080519060200190620000689291906200028c565b508360029080519060200190620000819291906200028c565b5082600390805190602001906200009a9291906200028c565b5081600460006101000a81548173ffffffffffffffffffffffffffffffffffffffff021916908373ffffffffffffffffffffffffffffffffffffffff16021790555033600660006101000a81548173ffffffffffffffffffffffffffffffffffffffff021916908373ffffffffffffffffffffffffffffffffffffffff1602179055508060079080519060200190620001359291906200028c565b50600160086040516200014890620006d0565b908152602001604051809103902060006101000a81548160ff021916908315150217905550600160086040516200017f9062000737565b908152602001604051809103902060006101000a81548160ff02191690831515021790555060016008604051620001b6906200079e565b908152602001604051809103902060006101000a81548160ff02191690831515021790555060016008604051620001ed9062000805565b908152602001604051809103902060006101000a81548160ff0219169083151502179055506001600860405162000224906200086c565b908152602001604051809103902060006101000a81548160ff021916908315150217905550600160086040516200025b90620008d3565b908152602001604051809103902060006101000a81548160ff0219169083151502179055505050505050506200094f565b8280546200029a9062000919565b90600052602060002090601f016020900481019282620002be57600085556200030a565b82601f10620002d957805160ff19168380011785556200030a565b828001600101855582156200030a579182015b8281111562000309578251825591602001919060010190620002ec565b5b5090506200031991906200031d565b5090565b5b80821115620003385760008160009055506001016200031e565b5090565b6000604051905090565b600080fd5b600080fd5b600080fd5b600080fd5b6000601f19601f8301169050919050565b7f4e487b7100000000000000000000000000000000000000000000000000000000600052604160045260246000fd5b620003a5826200035a565b810181811067ffffffffffffffff82111715620003c757620003c66200036b565b5b80604052505050565b6000620003dc6200033c565b9050620003ea82826200039a565b919050565b600067ffffffffffffffff8211156200040d576200040c6200036b565b5b62000418826200035a565b9050602081019050919050565b60005b838110156200044557808201518184015260208101905062000428565b8381111562000455576000848401525b50505050565b6000620004726200046c84620003ef565b620003d0565b90508281526020810184848401111562000491576200049062000355565b5b6200049e84828562000425565b509392505050565b600082601f830112620004be57620004bd62000350565b5b8151620004d08482602086016200045b565b91505092915050565b600073ffffffffffffffffffffffffffffffffffffffff82169050919050565b60006200050682620004d9565b9050919050565b6200051881620004f9565b81146200052457600080fd5b50565b60008151905062000538816200050d565b92915050565b60008060008060008060c087890312156200055e576200055d62000346565b5b600087015167ffffffffffffffff8111156200057f576200057e6200034b565b5b6200058d89828a01620004a6565b965050602087015167ffffffffffffffff811115620005b157620005b06200034b565b5b620005bf89828a01620004a6565b955050604087015167ffffffffffffffff811115620005e357620005e26200034b565b5b620005f189828a01620004a6565b945050606087015167ffffffffffffffff8111156200061557620006146200034b565b5b6200062389828a01620004a6565b93505060806200063689828a0162000527565b92505060a087015167ffffffffffffffff8111156200065a57620006596200034b565b5b6200066889828a01620004a6565b9150509295509295509295565b600081905092915050565b7f4100000000000000000000000000000000000000000000000000000000000000600082015250565b6000620006b860018362000675565b9150620006c58262000680565b600182019050919050565b6000620006dd82620006a9565b9150819050919050565b7f4200000000000000000000000000000000000000000000000000000000000000600082015250565b60006200071f60018362000675565b91506200072c82620006e7565b600182019050919050565b6000620007448262000710565b9150819050919050565b7f4300000000000000000000000000000000000000000000000000000000000000600082015250565b60006200078660018362000675565b915062000793826200074e565b600182019050919050565b6000620007ab8262000777565b9150819050919050565b7f4400000000000000000000000000000000000000000000000000000000000000600082015250565b6000620007ed60018362000675565b9150620007fa82620007b5565b600182019050919050565b60006200081282620007de565b9150819050919050565b7f4500000000000000000000000000000000000000000000000000000000000000600082015250565b60006200085460018362000675565b915062000861826200081c565b600182019050919050565b6000620008798262000845565b9150819050919050565b7f4600000000000000000000000000000000000000000000000000000000000000600082015250565b6000620008bb60018362000675565b9150620008c88262000883565b600182019050919050565b6000620008e082620008ac565b9150819050919050565b7f4e487b7100000000000000000000000000000000000000000000000000000000600052602260045260246000fd5b600060028204905060018216806200093257607f821691505b60208210811415620009495762000948620008ea565b5b50919050565b610ea7806200095f6000396000f3fe608060405234801561001057600080fd5b50600436106100cf5760003560e01c80634dc481701161008c5780638cabe7d0116100665780638cabe7d0146101ca578063cca42891146101e8578063df879a67146101f2578063f8f2ba2b1461020e576100cf565b80634dc48170146101865780636ff5e8e61461019057806370c7e230146101ae576100cf565b80631ee04f0a146100d457806321c9af56146100f257806322c61f54146101105780633815cd2c1461012e57806339154e9b1461014a578063423b766114610168575b600080fd5b6100dc61022c565b6040516100e99190610a57565b60405180910390f35b6100fa610252565b6040516101079190610b0b565b60405180910390f35b6101186102e0565b6040516101259190610b0b565b60405180910390f35b61014860048036038101906101439190610c76565b61036e565b005b610152610418565b60405161015f9190610a57565b60405180910390f35b61017061043e565b60405161017d9190610b0b565b60405180910390f35b61018e6104cc565b005b61019861062f565b6040516101a59190610b0b565b60405180910390f35b6101c860048036038101906101c39190610c76565b6106bd565b005b6101d2610767565b6040516101df9190610a57565b60405180910390f35b6101f061078d565b005b61020c60048036038101906102079190610c76565b6107d0565b005b6102166108e5565b6040516102239190610b0b565b60405180910390f35b600460009054906101000a900473ffffffffffffffffffffffffffffffffffffffff1681565b6001805461025f90610cee565b80601f016020809104026020016040519081016040528092919081815260200182805461028b90610cee565b80156102d85780601f106102ad576101008083540402835291602001916102d8565b820191906000526020600020905b8154815290600101906020018083116102bb57829003601f168201915b505050505081565b600780546102ed90610cee565b80601f016020809104026020016040519081016040528092919081815260200182805461031990610cee565b80156103665780601f1061033b57610100808354040283529160200191610366565b820191906000526020600020905b81548152906001019060200180831161034957829003601f168201915b505050505081565b3373ffffffffffffffffffffffffffffffffffffffff16600460009054906101000a900473ffffffffffffffffffffffffffffffffffffffff1673ffffffffffffffffffffffffffffffffffffffff16146103fe576040517f08c379a00000000000000000000000000000000000000000000000000000000081526004016103f590610d92565b60405180910390fd5b8060039080519060200190610414929190610973565b5050565b600660009054906101000a900473ffffffffffffffffffffffffffffffffffffffff1681565b6000805461044b90610cee565b80601f016020809104026020016040519081016040528092919081815260200182805461047790610cee565b80156104c45780601f10610499576101008083540402835291602001916104c4565b820191906000526020600020905b8154815290600101906020018083116104a757829003601f168201915b505050505081565b3373ffffffffffffffffffffffffffffffffffffffff16600460009054906101000a900473ffffffffffffffffffffffffffffffffffffffff1673ffffffffffffffffffffffffffffffffffffffff161461055c576040517f08c379a000000000000000000000000000000000000000000000000000000000815260040161055390610d92565b60405180910390fd5b600560009054906101000a900473ffffffffffffffffffffffffffffffffffffffff16600460006101000a81548173ffffffffffffffffffffffffffffffffffffffff021916908373ffffffffffffffffffffffffffffffffffffffff1602179055506000600560006101000a81548173ffffffffffffffffffffffffffffffffffffffff021916908373ffffffffffffffffffffffffffffffffffffffff1602179055507f349884ad6e24de18e01be6d8e4c64781b4ba0ad1fe2e099998d0a90d1e4697f660405160405180910390a1565b6002805461063c90610cee565b80601f016020809104026020016040519081016040528092919081815260200182805461066890610cee565b80156106b55780601f1061068a576101008083540402835291602001916106b5565b820191906000526020600020905b81548152906001019060200180831161069857829003601f168201915b505050505081565b3373ffffffffffffffffffffffffffffffffffffffff16600460009054906101000a900473ffffffffffffffffffffffffffffffffffffffff1673ffffffffffffffffffffffffffffffffffffffff161461074d576040517f08c379a000000000000000000000000000000000000000000000000000000000815260040161074490610d92565b60405180910390fd5b8060029080519060200190610763929190610973565b5050565b600560009054906101000a900473ffffffffffffffffffffffffffffffffffffffff1681565b33600560006101000a81548173ffffffffffffffffffffffffffffffffffffffff021916908373ffffffffffffffffffffffffffffffffffffffff160217905550565b3373ffffffffffffffffffffffffffffffffffffffff16600460009054906101000a900473ffffffffffffffffffffffffffffffffffffffff1673ffffffffffffffffffffffffffffffffffffffff1614610860576040517f08c379a000000000000000000000000000000000000000000000000000000000815260040161085790610d92565b60405180910390fd5b6008816040516108709190610dee565b908152602001604051809103902060009054906101000a900460ff166108cb576040517f08c379a00000000000000000000000000000000000000000000000000000000081526004016108c290610e51565b60405180910390fd5b80600790805190602001906108e1929190610973565b5050565b600380546108f290610cee565b80601f016020809104026020016040519081016040528092919081815260200182805461091e90610cee565b801561096b5780601f106109405761010080835404028352916020019161096b565b820191906000526020600020905b81548152906001019060200180831161094e57829003601f168201915b505050505081565b82805461097f90610cee565b90600052602060002090601f0160209004810192826109a157600085556109e8565b82601f106109ba57805160ff19168380011785556109e8565b828001600101855582156109e8579182015b828111156109e75782518255916020019190600101906109cc565b5b5090506109f591906109f9565b5090565b5b80821115610a125760008160009055506001016109fa565b5090565b600073ffffffffffffffffffffffffffffffffffffffff82169050919050565b6000610a4182610a16565b9050919050565b610a5181610a36565b82525050565b6000602082019050610a6c6000830184610a48565b92915050565b600081519050919050565b600082825260208201905092915050565b60005b83811015610aac578082015181840152602081019050610a91565b83811115610abb576000848401525b50505050565b6000601f19601f8301169050919050565b6000610add82610a72565b610ae78185610a7d565b9350610af7818560208601610a8e565b610b0081610ac1565b840191505092915050565b60006020820190508181036000830152610b258184610ad2565b905092915050565b6000604051905090565b600080fd5b600080fd5b600080fd5b600080fd5b7f4e487b7100000000000000000000000000000000000000000000000000000000600052604160045260246000fd5b610b8382610ac1565b810181811067ffffffffffffffff82111715610ba257610ba1610b4b565b5b80604052505050565b6000610bb5610b2d565b9050610bc18282610b7a565b919050565b600067ffffffffffffffff821115610be157610be0610b4b565b5b610bea82610ac1565b9050602081019050919050565b82818337600083830152505050565b6000610c19610c1484610bc6565b610bab565b905082815260208101848484011115610c3557610c34610b46565b5b610c40848285610bf7565b509392505050565b600082601f830112610c5d57610c5c610b41565b5b8135610c6d848260208601610c06565b91505092915050565b600060208284031215610c8c57610c8b610b37565b5b600082013567ffffffffffffffff811115610caa57610ca9610b3c565b5b610cb684828501610c48565b91505092915050565b7f4e487b7100000000000000000000000000000000000000000000000000000000600052602260045260246000fd5b60006002820490506001821680610d0657607f821691505b60208210811415610d1a57610d19610cbf565b5b50919050565b7f546869732070617274206973207265737472696374656420746f20746865206360008201527f757272656e742068616e646c6572206f6e6c7900000000000000000000000000602082015250565b6000610d7c603383610a7d565b9150610d8782610d20565b604082019050919050565b60006020820190508181036000830152610dab81610d6f565b9050919050565b600081905092915050565b6000610dc882610a72565b610dd28185610db2565b9350610de2818560208601610a8e565b80840191505092915050565b6000610dfa8284610dbd565b915081905092915050565b7f496e76616c6964206d61696e74656e616e636520747970650000000000000000600082015250565b6000610e3b601883610a7d565b9150610e4682610e05565b602082019050919050565b60006020820190508181036000830152610e6a81610e2e565b905091905056fea26469706673582212207ab39f8c08bee939377d6fcb5384aa76641675e33811e32b76b33cf764a1083664736f6c634300080a0033",
  "immutableReferences": {},
  "source": "// SPDX-License-Identifier: GPL-3.0\npragma solidity >=0.4.22 <0.9.0;\n\ncontract Part{\n\n    modifier onlyBy{\n        require(current_handler == msg.sender,\"This part is restricted to the current handler only\");\n        _;\n    }\n\n    string public entity_id;\n    string public part_id;\n    string public current_status;\n    string public current_loc;\n    address public current_handler;\n    address public transferee;\n    address public indent;\n    string public maintenance_status;\n    mapping (string=>bool) maintenance_types;\n\n    constructor(string memory _entity_id ,string memory _part_id,string memory _current_status,string memory _current_loc,address _current_handler,string memory _maintenance_status){\n        entity_id = _entity_id;\n        part_id = _part_id;\n        current_status = _current_status;\n        current_loc = _current_loc;\n        current_handler = _current_handler;\n        indent = msg.sender;\n        maintenance_status = _maintenance_status;\n        maintenance_types['A'] = true;\n        maintenance_types['B'] = true;\n        maintenance_types['C'] = true;\n        maintenance_types['D'] = true;\n        maintenance_types['E'] = true;\n        maintenance_types['F'] = true;\n    }\n\n    event OwnershipTransfer();\n\n    function request_ownership() public{\n        transferee = msg.sender;\n    }\n\n    function change_handler() public onlyBy(){\n        current_handler = transferee;\n        transferee = address(0);\n        emit OwnershipTransfer();\n    } \n\n    function change_status(string memory _current_status) public onlyBy(){\n        current_status = _current_status;\n    }\n\n    function change_loc(string memory _current_loc) public onlyBy(){\n        current_loc = _current_loc;\n    }\n\n    function change_maintenance(string memory _current_maintenance) public onlyBy(){\n        require(maintenance_types[_current_maintenance],\"Invalid maintenance type\");\n        maintenance_status = _current_maintenance;\n    }\n\n}",
  "sourcePath": "/home/krishap/Projects/Sem3-CSE1011/contracts/Part.sol",
  "compiler": {
    "name": "solc",
    "version": "0.8.10+commit.fc410830.Emscripten.clang"
  },
  "schemaVersion": "3.4.3",
  "updatedAt": "2021-12-05T15:58:41.435Z",
  "devdoc": {
    "kind": "dev",
    "methods": {},
    "version": 1
  },
  "userdoc": {
    "kind": "user",
    "methods": {},
    "version": 1
  }
}